{
  "contractName": "Selling",
  "abi": [
    {
      "constant": true,
      "inputs": [],
      "name": "seller",
      "outputs": [
        {
          "name": "",
          "type": "address"
        }
      ],
      "payable": false,
      "stateMutability": "view",
      "type": "function"
    },
    {
      "constant": true,
      "inputs": [],
      "name": "sellCount",
      "outputs": [
        {
          "name": "",
          "type": "uint256"
        }
      ],
      "payable": false,
      "stateMutability": "view",
      "type": "function"
    },
    {
      "constant": true,
      "inputs": [],
      "name": "tokenContract",
      "outputs": [
        {
          "name": "",
          "type": "address"
        }
      ],
      "payable": false,
      "stateMutability": "view",
      "type": "function"
    },
    {
      "constant": true,
      "inputs": [],
      "name": "productName",
      "outputs": [
        {
          "name": "",
          "type": "string"
        }
      ],
      "payable": false,
      "stateMutability": "view",
      "type": "function"
    },
    {
      "constant": true,
      "inputs": [],
      "name": "price",
      "outputs": [
        {
          "name": "",
          "type": "uint256"
        }
      ],
      "payable": false,
      "stateMutability": "view",
      "type": "function"
    },
    {
      "constant": true,
      "inputs": [
        {
          "name": "",
          "type": "address"
        }
      ],
      "name": "buyer",
      "outputs": [
        {
          "name": "",
          "type": "bool"
        }
      ],
      "payable": false,
      "stateMutability": "view",
      "type": "function"
    },
    {
      "constant": true,
      "inputs": [],
      "name": "contractActive",
      "outputs": [
        {
          "name": "",
          "type": "bool"
        }
      ],
      "payable": false,
      "stateMutability": "view",
      "type": "function"
    },
    {
      "inputs": [
        {
          "name": "_tokenCotract",
          "type": "address"
        },
        {
          "name": "_seller",
          "type": "address"
        },
        {
          "name": "_price",
          "type": "uint256"
        },
        {
          "name": "_productName",
          "type": "string"
        }
      ],
      "payable": false,
      "stateMutability": "nonpayable",
      "type": "constructor"
    },
    {
      "anonymous": false,
      "inputs": [
        {
          "indexed": false,
          "name": "_buyer",
          "type": "address"
        }
      ],
      "name": "Sold",
      "type": "event"
    },
    {
      "constant": false,
      "inputs": [],
      "name": "buyItems",
      "outputs": [],
      "payable": false,
      "stateMutability": "nonpayable",
      "type": "function"
    }
  ],
  "bytecode": "0x608060405234801561001057600080fd5b506040516108693803806108698339810180604052608081101561003357600080fd5b81019080805190602001909291908051906020019092919080519060200190929190805164010000000081111561006957600080fd5b8281019050602081018481111561007f57600080fd5b815185600182028301116401000000008211171561009c57600080fd5b5050929190505050836000806101000a81548173ffffffffffffffffffffffffffffffffffffffff021916908373ffffffffffffffffffffffffffffffffffffffff16021790555082600160006101000a81548173ffffffffffffffffffffffffffffffffffffffff021916908373ffffffffffffffffffffffffffffffffffffffff160217905550816004819055508060059080519060200190610142929190610167565b506001600660006101000a81548160ff0219169083151502179055505050505061020c565b828054600181600116156101000203166002900490600052602060002090601f016020900481019282601f106101a857805160ff19168380011785556101d6565b828001600101855582156101d6579182015b828111156101d55782518255916020019190600101906101ba565b5b5090506101e391906101e7565b5090565b61020991905b808211156102055760008160009055506001016101ed565b5090565b90565b61064e8061021b6000396000f3fe60806040526004361061008e576000357c0100000000000000000000000000000000000000000000000000000000900463ffffffff16806308551a53146100935780630c6b6737146100ea57806355a373d6146101155780637f7650eb1461016c578063a035b1fe146101fc578063b774820814610227578063c025819114610290578063e289fcb6146102a7575b600080fd5b34801561009f57600080fd5b506100a86102d6565b604051808273ffffffffffffffffffffffffffffffffffffffff1673ffffffffffffffffffffffffffffffffffffffff16815260200191505060405180910390f35b3480156100f657600080fd5b506100ff6102fc565b6040518082815260200191505060405180910390f35b34801561012157600080fd5b5061012a610302565b604051808273ffffffffffffffffffffffffffffffffffffffff1673ffffffffffffffffffffffffffffffffffffffff16815260200191505060405180910390f35b34801561017857600080fd5b50610181610327565b6040518080602001828103825283818151815260200191508051906020019080838360005b838110156101c15780820151818401526020810190506101a6565b50505050905090810190601f1680156101ee5780820380516001836020036101000a031916815260200191505b509250505060405180910390f35b34801561020857600080fd5b506102116103c5565b6040518082815260200191505060405180910390f35b34801561023357600080fd5b506102766004803603602081101561024a57600080fd5b81019080803573ffffffffffffffffffffffffffffffffffffffff1690602001909291905050506103cb565b604051808215151515815260200191505060405180910390f35b34801561029c57600080fd5b506102a56103eb565b005b3480156102b357600080fd5b506102bc61060f565b604051808215151515815260200191505060405180910390f35b600160009054906101000a900473ffffffffffffffffffffffffffffffffffffffff1681565b60035481565b6000809054906101000a900473ffffffffffffffffffffffffffffffffffffffff1681565b60058054600181600116156101000203166002900480601f0160208091040260200160405190810160405280929190818152602001828054600181600116156101000203166002900480156103bd5780601f10610392576101008083540402835291602001916103bd565b820191906000526020600020905b8154815290600101906020018083116103a057829003601f168201915b505050505081565b60045481565b60026020528060005260406000206000915054906101000a900460ff1681565b600660009054906101000a900460ff16151561040657600080fd5b6000809054906101000a900473ffffffffffffffffffffffffffffffffffffffff1673ffffffffffffffffffffffffffffffffffffffff166323b872dd33306004546040518463ffffffff167c0100000000000000000000000000000000000000000000000000000000028152600401808473ffffffffffffffffffffffffffffffffffffffff1673ffffffffffffffffffffffffffffffffffffffff1681526020018373ffffffffffffffffffffffffffffffffffffffff1673ffffffffffffffffffffffffffffffffffffffff1681526020018281526020019350505050602060405180830381600087803b15801561050057600080fd5b505af1158015610514573d6000803e3d6000fd5b505050506040513d602081101561052a57600080fd5b8101908080519060200190929190505050151561054657600080fd5b6001600260003373ffffffffffffffffffffffffffffffffffffffff1673ffffffffffffffffffffffffffffffffffffffff16815260200190815260200160002060006101000a81548160ff0219169083151502179055506001600354016003819055507ffbd6287d9242307b2750fc8252314857896e312d167cdbc9eed322bae8828e0033604051808273ffffffffffffffffffffffffffffffffffffffff1673ffffffffffffffffffffffffffffffffffffffff16815260200191505060405180910390a1565b600660009054906101000a900460ff168156fea165627a7a723058201afb4d44e0f111960fa9619214d91b304ab9af10f3b381b83e3001909a0c6dd90029",
  "source": "pragma solidity >0.4.99 <0.6.0;\n\nimport \"./PecuCoin.sol\";\n\ncontract Selling {\n\n\tPecuCoin public tokenContract;\n\n\taddress public seller;\n\n\tmapping(address => bool) public buyer;\n\n\tuint256 public sellCount;\n\n\tuint256 public price;\n\n\tstring public productName;\n\n\tbool public contractActive;\n\n\tevent Sold(\n\t\taddress _buyer);\n\n\tconstructor(PecuCoin _tokenCotract, address _seller, uint256 _price, string memory _productName) public {\n\t\ttokenContract = _tokenCotract;\n\t\tseller = _seller;\n\t\tprice = _price;\n\t\tproductName = _productName;\n\t\tcontractActive = true;\n\t}\n\n\tfunction buyItems() public {\n\t\t// pay firstPartAmount\n\t\t// record the buyer\n\t\trequire(contractActive);\n\t\t//require(msg.value == price);\n\t\trequire(tokenContract.transferFrom(msg.sender, address(this), price));\n\t\tbuyer[msg.sender] = true;\n\t\tsellCount = sellCount + 1;\n\t\temit Sold(msg.sender);\n\t}\n\n}",
  "sourcePath": "/Users/ycchen/Desktop/Programming_Exercise/2019_NTU_SMART_CONTRACTS/LECTURE_3/Solidity_Part/contracts/Selling.sol",
  "compiler": {
    "name": "solc",
    "version": "0.5.0+commit.1d4f565a.Emscripten.clang"
  },
  "schemaVersion": "3.0.1",
  "updatedAt": "2019-04-30T23:58:14.370Z",
  "devdoc": {
    "methods": {}
  },
  "userdoc": {
    "methods": {}
  }
}