{
  "contractName": "Selling",
  "abi": [
    {
      "constant": true,
      "inputs": [],
      "name": "seller",
      "outputs": [
        {
          "name": "",
          "type": "address"
        }
      ],
      "payable": false,
      "stateMutability": "view",
      "type": "function",
      "signature": "0x08551a53"
    },
    {
      "constant": true,
      "inputs": [],
      "name": "sellCount",
      "outputs": [
        {
          "name": "",
          "type": "uint256"
        }
      ],
      "payable": false,
      "stateMutability": "view",
      "type": "function",
      "signature": "0x0c6b6737"
    },
    {
      "constant": true,
      "inputs": [],
      "name": "productName",
      "outputs": [
        {
          "name": "",
          "type": "string"
        }
      ],
      "payable": false,
      "stateMutability": "view",
      "type": "function",
      "signature": "0x7f7650eb"
    },
    {
      "constant": true,
      "inputs": [],
      "name": "price",
      "outputs": [
        {
          "name": "",
          "type": "uint256"
        }
      ],
      "payable": false,
      "stateMutability": "view",
      "type": "function",
      "signature": "0xa035b1fe"
    },
    {
      "constant": true,
      "inputs": [
        {
          "name": "",
          "type": "address"
        }
      ],
      "name": "buyer",
      "outputs": [
        {
          "name": "",
          "type": "bool"
        }
      ],
      "payable": false,
      "stateMutability": "view",
      "type": "function",
      "signature": "0xb7748208"
    },
    {
      "constant": true,
      "inputs": [],
      "name": "contractActive",
      "outputs": [
        {
          "name": "",
          "type": "bool"
        }
      ],
      "payable": false,
      "stateMutability": "view",
      "type": "function",
      "signature": "0xe289fcb6"
    },
    {
      "inputs": [
        {
          "name": "_seller",
          "type": "address"
        },
        {
          "name": "_price",
          "type": "uint256"
        },
        {
          "name": "_productName",
          "type": "string"
        }
      ],
      "payable": false,
      "stateMutability": "nonpayable",
      "type": "constructor",
      "signature": "constructor"
    },
    {
      "anonymous": false,
      "inputs": [
        {
          "indexed": false,
          "name": "_buyer",
          "type": "address"
        }
      ],
      "name": "Sold",
      "type": "event",
      "signature": "0xfbd6287d9242307b2750fc8252314857896e312d167cdbc9eed322bae8828e00"
    },
    {
      "constant": false,
      "inputs": [],
      "name": "buyItems",
      "outputs": [],
      "payable": true,
      "stateMutability": "payable",
      "type": "function",
      "signature": "0xc0258191"
    }
  ],
  "bytecode": "0x608060405234801561001057600080fd5b506040516106573803806106578339810180604052606081101561003357600080fd5b810190808051906020019092919080519060200190929190805164010000000081111561005f57600080fd5b8281019050602081018481111561007557600080fd5b815185600182028301116401000000008211171561009257600080fd5b5050929190505050826000806101000a81548173ffffffffffffffffffffffffffffffffffffffff021916908373ffffffffffffffffffffffffffffffffffffffff1602179055508160038190555080600490805190602001906100f792919061011b565b506001600560006101000a81548160ff0219169083151502179055505050506101c0565b828054600181600116156101000203166002900490600052602060002090601f016020900481019282601f1061015c57805160ff191683800117855561018a565b8280016001018555821561018a579182015b8281111561018957825182559160200191906001019061016e565b5b509050610197919061019b565b5090565b6101bd91905b808211156101b95760008160009055506001016101a1565b5090565b90565b610488806101cf6000396000f3fe608060405260043610610083576000357c0100000000000000000000000000000000000000000000000000000000900463ffffffff16806308551a53146100885780630c6b6737146100df5780637f7650eb1461010a578063a035b1fe1461019a578063b7748208146101c5578063c02581911461022e578063e289fcb614610238575b600080fd5b34801561009457600080fd5b5061009d610267565b604051808273ffffffffffffffffffffffffffffffffffffffff1673ffffffffffffffffffffffffffffffffffffffff16815260200191505060405180910390f35b3480156100eb57600080fd5b506100f461028c565b6040518082815260200191505060405180910390f35b34801561011657600080fd5b5061011f610292565b6040518080602001828103825283818151815260200191508051906020019080838360005b8381101561015f578082015181840152602081019050610144565b50505050905090810190601f16801561018c5780820380516001836020036101000a031916815260200191505b509250505060405180910390f35b3480156101a657600080fd5b506101af610330565b6040518082815260200191505060405180910390f35b3480156101d157600080fd5b50610214600480360360208110156101e857600080fd5b81019080803573ffffffffffffffffffffffffffffffffffffffff169060200190929190505050610336565b604051808215151515815260200191505060405180910390f35b610236610356565b005b34801561024457600080fd5b5061024d610449565b604051808215151515815260200191505060405180910390f35b6000809054906101000a900473ffffffffffffffffffffffffffffffffffffffff1681565b60025481565b60048054600181600116156101000203166002900480601f0160208091040260200160405190810160405280929190818152602001828054600181600116156101000203166002900480156103285780601f106102fd57610100808354040283529160200191610328565b820191906000526020600020905b81548152906001019060200180831161030b57829003601f168201915b505050505081565b60035481565b60016020528060005260406000206000915054906101000a900460ff1681565b600560009054906101000a900460ff16151561037157600080fd5b6003543414151561038157600080fd5b60018060003373ffffffffffffffffffffffffffffffffffffffff1673ffffffffffffffffffffffffffffffffffffffff16815260200190815260200160002060006101000a81548160ff0219169083151502179055506001600254016002819055507ffbd6287d9242307b2750fc8252314857896e312d167cdbc9eed322bae8828e0033604051808273ffffffffffffffffffffffffffffffffffffffff1673ffffffffffffffffffffffffffffffffffffffff16815260200191505060405180910390a1565b600560009054906101000a900460ff168156fea165627a7a72305820222e093c849faa56590f85993b28387a2bc76a69172a978702618c498ed434e20029",
  "source": "pragma solidity >0.4.99 <0.6.0;\n\n\ncontract Selling {\n\n\taddress public seller;\n\n\tmapping(address => bool) public buyer;\n\n\tuint256 public sellCount;\n\n\tuint256 public price;\n\n\tstring public productName;\n\n\tbool public contractActive;\n\n\tevent Sold(\n\t\taddress _buyer);\n\n\tconstructor(address _seller, uint256 _price, string memory _productName) public {\n\t\tseller = _seller;\n\t\tprice = _price;\n\t\tproductName = _productName;\n\t\tcontractActive = true;\n\t}\n\n\tfunction buyItems() public payable {\n\t\t// pay firstPartAmount\n\t\t// record the buyer\n\t\trequire(contractActive);\n\t\trequire(msg.value == price);\n\t\tbuyer[msg.sender] = true;\n\t\tsellCount = sellCount + 1;\n\t\temit Sold(msg.sender);\n\t}\n\n}",
  "sourcePath": "/Users/ycchen/Desktop/Programming_Exercise/2019_NTU_SMART_CONTRACTS/LECTURE_2/Solidity_Part/contracts/Selling.sol",
  "compiler": {
    "name": "solc",
    "version": "0.5.0+commit.1d4f565a.Emscripten.clang"
  },
  "schemaVersion": "3.0.1",
  "updatedAt": "2019-04-10T00:12:47.287Z",
  "devdoc": {
    "methods": {}
  },
  "userdoc": {
    "methods": {}
  }
}